{
  "contractName": "ERC20Template",
  "abi": [
    {
      "anonymous": false,
      "inputs": [
        {
          "indexed": true,
          "internalType": "address",
          "name": "owner",
          "type": "address"
        },
        {
          "indexed": true,
          "internalType": "address",
          "name": "spender",
          "type": "address"
        },
        {
          "indexed": false,
          "internalType": "uint256",
          "name": "amount",
          "type": "uint256"
        }
      ],
      "name": "Approval",
      "type": "event"
    },
    {
      "anonymous": false,
      "inputs": [
        {
          "indexed": true,
          "internalType": "address",
          "name": "from",
          "type": "address"
        },
        {
          "indexed": true,
          "internalType": "address",
          "name": "to",
          "type": "address"
        },
        {
          "indexed": false,
          "internalType": "uint256",
          "name": "amount",
          "type": "uint256"
        }
      ],
      "name": "Transfer",
      "type": "event"
    },
    {
      "inputs": [],
      "name": "decimals",
      "outputs": [
        {
          "internalType": "uint256",
          "name": "",
          "type": "uint256"
        }
      ],
      "stateMutability": "view",
      "type": "function",
      "constant": true
    },
    {
      "inputs": [],
      "name": "initialized",
      "outputs": [
        {
          "internalType": "bool",
          "name": "",
          "type": "bool"
        }
      ],
      "stateMutability": "view",
      "type": "function",
      "constant": true
    },
    {
      "inputs": [],
      "name": "name",
      "outputs": [
        {
          "internalType": "string",
          "name": "",
          "type": "string"
        }
      ],
      "stateMutability": "view",
      "type": "function",
      "constant": true
    },
    {
      "inputs": [],
      "name": "symbol",
      "outputs": [
        {
          "internalType": "string",
          "name": "",
          "type": "string"
        }
      ],
      "stateMutability": "view",
      "type": "function",
      "constant": true
    },
    {
      "inputs": [],
      "name": "totalSupply",
      "outputs": [
        {
          "internalType": "uint256",
          "name": "",
          "type": "uint256"
        }
      ],
      "stateMutability": "view",
      "type": "function",
      "constant": true
    },
    {
      "inputs": [
        {
          "internalType": "address",
          "name": "_creator",
          "type": "address"
        },
        {
          "internalType": "uint256",
          "name": "_totalSupply",
          "type": "uint256"
        },
        {
          "internalType": "string",
          "name": "_name",
          "type": "string"
        },
        {
          "internalType": "string",
          "name": "_symbol",
          "type": "string"
        },
        {
          "internalType": "uint256",
          "name": "_decimals",
          "type": "uint256"
        }
      ],
      "name": "init",
      "outputs": [],
      "stateMutability": "nonpayable",
      "type": "function"
    },
    {
      "inputs": [
        {
          "internalType": "address",
          "name": "to",
          "type": "address"
        },
        {
          "internalType": "uint256",
          "name": "amount",
          "type": "uint256"
        }
      ],
      "name": "transfer",
      "outputs": [
        {
          "internalType": "bool",
          "name": "",
          "type": "bool"
        }
      ],
      "stateMutability": "nonpayable",
      "type": "function"
    },
    {
      "inputs": [
        {
          "internalType": "address",
          "name": "owner",
          "type": "address"
        }
      ],
      "name": "balanceOf",
      "outputs": [
        {
          "internalType": "uint256",
          "name": "balance",
          "type": "uint256"
        }
      ],
      "stateMutability": "view",
      "type": "function",
      "constant": true
    },
    {
      "inputs": [
        {
          "internalType": "address",
          "name": "from",
          "type": "address"
        },
        {
          "internalType": "address",
          "name": "to",
          "type": "address"
        },
        {
          "internalType": "uint256",
          "name": "amount",
          "type": "uint256"
        }
      ],
      "name": "transferFrom",
      "outputs": [
        {
          "internalType": "bool",
          "name": "",
          "type": "bool"
        }
      ],
      "stateMutability": "nonpayable",
      "type": "function"
    },
    {
      "inputs": [
        {
          "internalType": "address",
          "name": "spender",
          "type": "address"
        },
        {
          "internalType": "uint256",
          "name": "amount",
          "type": "uint256"
        }
      ],
      "name": "approve",
      "outputs": [
        {
          "internalType": "bool",
          "name": "",
          "type": "bool"
        }
      ],
      "stateMutability": "nonpayable",
      "type": "function"
    },
    {
      "inputs": [
        {
          "internalType": "address",
          "name": "owner",
          "type": "address"
        },
        {
          "internalType": "address",
          "name": "spender",
          "type": "address"
        }
      ],
      "name": "allowance",
      "outputs": [
        {
          "internalType": "uint256",
          "name": "",
          "type": "uint256"
        }
      ],
      "stateMutability": "view",
      "type": "function",
      "constant": true
    }
  ],
  "bytecode": "0x608060405234801561001057600080fd5b5061192b806100206000396000f3fe608060405234801561001057600080fd5b50600436106100c6576000357c010000000000000000000000000000000000000000000000000000000090048063313ce5671161008e578063313ce5671461018557806370a08231146101a35780637e24f904146101d357806395d89b41146101ef578063a9059cbb1461020d578063dd62ed3e1461023d576100c6565b806306fdde03146100cb578063095ea7b3146100e9578063158ef93e1461011957806318160ddd1461013757806323b872dd14610155575b600080fd5b6100d361026d565b6040516100e09190610ee0565b60405180910390f35b61010360048036038101906100fe9190610faa565b6102fb565b6040516101109190611005565b60405180910390f35b6101216103ed565b60405161012e9190611005565b60405180910390f35b61013f610400565b60405161014c919061102f565b60405180910390f35b61016f600480360381019061016a919061104a565b610406565b60405161017c9190611005565b60405180910390f35b61018d610860565b60405161019a919061102f565b60405180910390f35b6101bd60048036038101906101b8919061109d565b610866565b6040516101ca919061102f565b60405180910390f35b6101ed60048036038101906101e891906111ff565b6108af565b005b6101f76109f9565b6040516102049190610ee0565b60405180910390f35b61022760048036038101906102229190610faa565b610a87565b6040516102349190611005565b60405180910390f35b610257600480360381019061025291906112b2565b610d12565b604051610264919061102f565b60405180910390f35b6000805461027a90611321565b80601f01602080910402602001604051908101604052809291908181526020018280546102a690611321565b80156102f35780601f106102c8576101008083540402835291602001916102f3565b820191906000526020600020905b8154815290600101906020018083116102d657829003601f168201915b505050505081565b600081600660003373ffffffffffffffffffffffffffffffffffffffff1673ffffffffffffffffffffffffffffffffffffffff16815260200190815260200160002060008573ffffffffffffffffffffffffffffffffffffffff1673ffffffffffffffffffffffffffffffffffffffff168152602001908152602001600020819055508273ffffffffffffffffffffffffffffffffffffffff163373ffffffffffffffffffffffffffffffffffffffff167f8c5be1e5ebec7d5bd14f71427d1e84f3dd0314c0f7b2291e5b200ac8c7c3b925846040516103db919061102f565b60405180910390a36001905092915050565b600460009054906101000a900460ff1681565b60035481565b60008073ffffffffffffffffffffffffffffffffffffffff168373ffffffffffffffffffffffffffffffffffffffff1603610476576040517f08c379a000000000000000000000000000000000000000000000000000000000815260040161046d9061139e565b60405180910390fd5b600560008573ffffffffffffffffffffffffffffffffffffffff1673ffffffffffffffffffffffffffffffffffffffff168152602001908152602001600020548211156104f8576040517f08c379a00000000000000000000000000000000000000000000000000000000081526004016104ef9061140a565b60405180910390fd5b600660008573ffffffffffffffffffffffffffffffffffffffff1673ffffffffffffffffffffffffffffffffffffffff16815260200190815260200160002060003373ffffffffffffffffffffffffffffffffffffffff1673ffffffffffffffffffffffffffffffffffffffff168152602001908152602001600020548211156105b7576040517f08c379a00000000000000000000000000000000000000000000000000000000081526004016105ae90611476565b60405180910390fd5b61060982600560008773ffffffffffffffffffffffffffffffffffffffff1673ffffffffffffffffffffffffffffffffffffffff16815260200190815260200160002054610d9990919063ffffffff16565b600560008673ffffffffffffffffffffffffffffffffffffffff1673ffffffffffffffffffffffffffffffffffffffff1681526020019081526020016000208190555061069e82600560008673ffffffffffffffffffffffffffffffffffffffff1673ffffffffffffffffffffffffffffffffffffffff16815260200190815260200160002054610df290919063ffffffff16565b600560008573ffffffffffffffffffffffffffffffffffffffff1673ffffffffffffffffffffffffffffffffffffffff1681526020019081526020016000208190555061077082600660008773ffffffffffffffffffffffffffffffffffffffff1673ffffffffffffffffffffffffffffffffffffffff16815260200190815260200160002060003373ffffffffffffffffffffffffffffffffffffffff1673ffffffffffffffffffffffffffffffffffffffff16815260200190815260200160002054610d9990919063ffffffff16565b600660008673ffffffffffffffffffffffffffffffffffffffff1673ffffffffffffffffffffffffffffffffffffffff16815260200190815260200160002060003373ffffffffffffffffffffffffffffffffffffffff1673ffffffffffffffffffffffffffffffffffffffff168152602001908152602001600020819055508273ffffffffffffffffffffffffffffffffffffffff168473ffffffffffffffffffffffffffffffffffffffff167fddf252ad1be2c89b69c2b068fc378daa952ba7f163c4a11628f55a4df523b3ef8460405161084d919061102f565b60405180910390a3600190509392505050565b60015481565b6000600560008373ffffffffffffffffffffffffffffffffffffffff1673ffffffffffffffffffffffffffffffffffffffff168152602001908152602001600020549050919050565b600460009054906101000a900460ff16156108ff576040517f08c379a00000000000000000000000000000000000000000000000000000000081526004016108f6906114e2565b60405180910390fd5b6001600460006101000a81548160ff0219169083151502179055508360038190555083600560008773ffffffffffffffffffffffffffffffffffffffff1673ffffffffffffffffffffffffffffffffffffffff16815260200190815260200160002081905550826000908161097491906116b4565b50816002908161098491906116b4565b50806001819055508473ffffffffffffffffffffffffffffffffffffffff16600073ffffffffffffffffffffffffffffffffffffffff167fddf252ad1be2c89b69c2b068fc378daa952ba7f163c4a11628f55a4df523b3ef866040516109ea919061102f565b60405180910390a35050505050565b60028054610a0690611321565b80601f0160208091040260200160405190810160405280929190818152602001828054610a3290611321565b8015610a7f5780601f10610a5457610100808354040283529160200191610a7f565b820191906000526020600020905b815481529060010190602001808311610a6257829003601f168201915b505050505081565b60008073ffffffffffffffffffffffffffffffffffffffff168373ffffffffffffffffffffffffffffffffffffffff1603610af7576040517f08c379a0000000000000000000000000000000000000000000000000000000008152600401610aee9061139e565b60405180910390fd5b600560003373ffffffffffffffffffffffffffffffffffffffff1673ffffffffffffffffffffffffffffffffffffffff16815260200190815260200160002054821115610b79576040517f08c379a0000000000000000000000000000000000000000000000000000000008152600401610b709061140a565b60405180910390fd5b610bcb82600560003373ffffffffffffffffffffffffffffffffffffffff1673ffffffffffffffffffffffffffffffffffffffff16815260200190815260200160002054610d9990919063ffffffff16565b600560003373ffffffffffffffffffffffffffffffffffffffff1673ffffffffffffffffffffffffffffffffffffffff16815260200190815260200160002081905550610c6082600560008673ffffffffffffffffffffffffffffffffffffffff1673ffffffffffffffffffffffffffffffffffffffff16815260200190815260200160002054610df290919063ffffffff16565b600560008573ffffffffffffffffffffffffffffffffffffffff1673ffffffffffffffffffffffffffffffffffffffff168152602001908152602001600020819055508273ffffffffffffffffffffffffffffffffffffffff163373ffffffffffffffffffffffffffffffffffffffff167fddf252ad1be2c89b69c2b068fc378daa952ba7f163c4a11628f55a4df523b3ef84604051610d00919061102f565b60405180910390a36001905092915050565b6000600660008473ffffffffffffffffffffffffffffffffffffffff1673ffffffffffffffffffffffffffffffffffffffff16815260200190815260200160002060008373ffffffffffffffffffffffffffffffffffffffff1673ffffffffffffffffffffffffffffffffffffffff16815260200190815260200160002054905092915050565b600082821115610dde576040517f08c379a0000000000000000000000000000000000000000000000000000000008152600401610dd5906117d2565b60405180910390fd5b8183610dea9190611821565b905092915050565b6000808284610e019190611855565b905083811015610e46576040517f08c379a0000000000000000000000000000000000000000000000000000000008152600401610e3d906118d5565b60405180910390fd5b8091505092915050565b600081519050919050565b600082825260208201905092915050565b60005b83811015610e8a578082015181840152602081019050610e6f565b60008484015250505050565b6000601f19601f8301169050919050565b6000610eb282610e50565b610ebc8185610e5b565b9350610ecc818560208601610e6c565b610ed581610e96565b840191505092915050565b60006020820190508181036000830152610efa8184610ea7565b905092915050565b6000604051905090565b600080fd5b600080fd5b600073ffffffffffffffffffffffffffffffffffffffff82169050919050565b6000610f4182610f16565b9050919050565b610f5181610f36565b8114610f5c57600080fd5b50565b600081359050610f6e81610f48565b92915050565b6000819050919050565b610f8781610f74565b8114610f9257600080fd5b50565b600081359050610fa481610f7e565b92915050565b60008060408385031215610fc157610fc0610f0c565b5b6000610fcf85828601610f5f565b9250506020610fe085828601610f95565b9150509250929050565b60008115159050919050565b610fff81610fea565b82525050565b600060208201905061101a6000830184610ff6565b92915050565b61102981610f74565b82525050565b60006020820190506110446000830184611020565b92915050565b60008060006060848603121561106357611062610f0c565b5b600061107186828701610f5f565b935050602061108286828701610f5f565b925050604061109386828701610f95565b9150509250925092565b6000602082840312156110b3576110b2610f0c565b5b60006110c184828501610f5f565b91505092915050565b600080fd5b600080fd5b7f4e487b7100000000000000000000000000000000000000000000000000000000600052604160045260246000fd5b61110c82610e96565b810181811067ffffffffffffffff8211171561112b5761112a6110d4565b5b80604052505050565b600061113e610f02565b905061114a8282611103565b919050565b600067ffffffffffffffff82111561116a576111696110d4565b5b61117382610e96565b9050602081019050919050565b82818337600083830152505050565b60006111a261119d8461114f565b611134565b9050828152602081018484840111156111be576111bd6110cf565b5b6111c9848285611180565b509392505050565b600082601f8301126111e6576111e56110ca565b5b81356111f684826020860161118f565b91505092915050565b600080600080600060a0868803121561121b5761121a610f0c565b5b600061122988828901610f5f565b955050602061123a88828901610f95565b945050604086013567ffffffffffffffff81111561125b5761125a610f11565b5b611267888289016111d1565b935050606086013567ffffffffffffffff81111561128857611287610f11565b5b611294888289016111d1565b92505060806112a588828901610f95565b9150509295509295909350565b600080604083850312156112c9576112c8610f0c565b5b60006112d785828601610f5f565b92505060206112e885828601610f5f565b9150509250929050565b7f4e487b7100000000000000000000000000000000000000000000000000000000600052602260045260246000fd5b6000600282049050600182168061133957607f821691505b60208210810361134c5761134b6112f2565b5b50919050565b7f544f5f414444524553535f49535f454d50545900000000000000000000000000600082015250565b6000611388601383610e5b565b915061139382611352565b602082019050919050565b600060208201905081810360008301526113b78161137b565b9050919050565b7f42414c414e43455f4e4f545f454e4f5547480000000000000000000000000000600082015250565b60006113f4601283610e5b565b91506113ff826113be565b602082019050919050565b60006020820190508181036000830152611423816113e7565b9050919050565b7f414c4c4f57414e43455f4e4f545f454e4f554748000000000000000000000000600082015250565b6000611460601483610e5b565b915061146b8261142a565b602082019050919050565b6000602082019050818103600083015261148f81611453565b9050919050565b7f544f4b454e5f494e495449414c495a4544000000000000000000000000000000600082015250565b60006114cc601183610e5b565b91506114d782611496565b602082019050919050565b600060208201905081810360008301526114fb816114bf565b9050919050565b60008190508160005260206000209050919050565b60006020601f8301049050919050565b60008160020a8302905092915050565b6000600883026115677fffffffffffffffffffffffffffffffffffffffffffffffffffffffffffffffff82611527565b6115718683611527565b95508019841693508086168417925050509392505050565b6000819050919050565b60006115ae6115a96115a484610f74565b611589565b610f74565b9050919050565b6000819050919050565b6115c883611593565b6115dc6115d4826115b5565b848454611537565b825550505050565b600090565b6115f16115e4565b6115fc8184846115bf565b505050565b5b81811015611620576116156000826115e9565b600181019050611602565b5050565b601f8211156116655761163681611502565b61163f84611517565b8101602085101561164e578190505b61166261165a85611517565b830182611601565b50505b505050565b60008160020a8304905092915050565b600061168b6000198460080261166a565b1980831691505092915050565b60006116a4838361167a565b9150826002028217905092915050565b6116bd82610e50565b67ffffffffffffffff8111156116d6576116d56110d4565b5b6116e08254611321565b6116eb828285611624565b600060209050601f83116001811461171e576000841561170c578287015190505b6117168582611698565b86555061177e565b601f19841661172c86611502565b60005b828110156117545784890151825560018201915060208501945060208101905061172f565b86831015611771578489015161176d601f89168261167a565b8355505b6001600288020188555050505b505050505050565b7f5355425f4552524f520000000000000000000000000000000000000000000000600082015250565b60006117bc600983610e5b565b91506117c782611786565b602082019050919050565b600060208201905081810360008301526117eb816117af565b9050919050565b7f4e487b7100000000000000000000000000000000000000000000000000000000600052601160045260246000fd5b600061182c82610f74565b915061183783610f74565b925082820390508181111561184f5761184e6117f2565b5b92915050565b600061186082610f74565b915061186b83610f74565b9250828201905080821115611883576118826117f2565b5b92915050565b7f4144445f4552524f520000000000000000000000000000000000000000000000600082015250565b60006118bf600983610e5b565b91506118ca82611889565b602082019050919050565b600060208201905081810360008301526118ee816118b2565b905091905056fea264697066735822122069273088ae01ed2569a2b417cf23f3ff15c64ccd40303fae20c0e89ee0a5f2fb64736f6c63430008130033",
  "immutableReferences": {},
  "source": "pragma solidity 0.8.19;\n\nimport {SafeMath} from \"./SafeMath.sol\";\n\ncontract ERC20Template {\n    using SafeMath for uint256;\n\n    string public name;\n    uint256 public decimals;\n    string public symbol;\n    uint256 public totalSupply;\n\n    bool public initialized;\n\n    mapping(address => uint256) balances;\n    mapping(address => mapping(address => uint256)) internal allowed;\n\n    event Transfer(address indexed from, address indexed to, uint256 amount);\n    event Approval(\n        address indexed owner,\n        address indexed spender,\n        uint256 amount\n    );\n\n    function init(\n        address _creator,\n        uint256 _totalSupply,\n        string memory _name,\n        string memory _symbol,\n        uint256 _decimals\n    ) public {\n        require(!initialized, \"TOKEN_INITIALIZED\");\n        initialized = true;\n        totalSupply = _totalSupply;\n        balances[_creator] = _totalSupply;\n        name = _name;\n        symbol = _symbol;\n        decimals = _decimals;\n        emit Transfer(address(0), _creator, _totalSupply);\n    }\n\n    function transfer(address to, uint256 amount) public returns (bool) {\n        require(to != address(0), \"TO_ADDRESS_IS_EMPTY\");\n        require(amount <= balances[msg.sender], \"BALANCE_NOT_ENOUGH\");\n\n        balances[msg.sender] = balances[msg.sender].sub(amount);\n        balances[to] = balances[to].add(amount);\n        emit Transfer(msg.sender, to, amount);\n        return true;\n    }\n\n    function balanceOf(address owner) public view returns (uint256 balance) {\n        return balances[owner];\n    }\n\n    function transferFrom(\n        address from,\n        address to,\n        uint256 amount\n    ) public returns (bool) {\n        require(to != address(0), \"TO_ADDRESS_IS_EMPTY\");\n        require(amount <= balances[from], \"BALANCE_NOT_ENOUGH\");\n        require(amount <= allowed[from][msg.sender], \"ALLOWANCE_NOT_ENOUGH\");\n\n        balances[from] = balances[from].sub(amount);\n        balances[to] = balances[to].add(amount);\n        allowed[from][msg.sender] = allowed[from][msg.sender].sub(amount);\n        emit Transfer(from, to, amount);\n        return true;\n    }\n\n    function approve(address spender, uint256 amount) public returns (bool) {\n        allowed[msg.sender][spender] = amount;\n        emit Approval(msg.sender, spender, amount);\n        return true;\n    }\n\n    function allowance(\n        address owner,\n        address spender\n    ) public view returns (uint256) {\n        return allowed[owner][spender];\n    }\n}",
  "sourcePath": "/Users/songen/Desktop/123/kratos-gorm-git/kafka/erc20/contracts/ERC20Template.sol",
  "compiler": {
    "name": "solc",
    "version": "0.8.19+commit.7dd6d404.Emscripten.clang"
  },
  "schemaVersion": "3.4.13",
  "updatedAt": "2023-05-02T14:10:50.296Z",
  "networkType": "ethereum",
  "devdoc": {
    "kind": "dev",
    "methods": {},
    "version": 1
  },
  "userdoc": {
    "kind": "user",
    "methods": {},
    "version": 1
  }
}