{
  "contractName": "ERC20Factory",
  "abi": [
    {
      "inputs": [
        {
          "internalType": "address",
          "name": "cloneFactory",
          "type": "address"
        },
        {
          "internalType": "address",
          "name": "erc20Template",
          "type": "address"
        },
        {
          "internalType": "address",
          "name": "mintableErc20Template",
          "type": "address"
        }
      ],
      "stateMutability": "nonpayable",
      "type": "constructor"
    },
    {
      "anonymous": false,
      "inputs": [
        {
          "indexed": false,
          "internalType": "address",
          "name": "erc20",
          "type": "address"
        },
        {
          "indexed": false,
          "internalType": "address",
          "name": "creator",
          "type": "address"
        },
        {
          "indexed": false,
          "internalType": "bool",
          "name": "isMintable",
          "type": "bool"
        }
      ],
      "name": "NewERC20",
      "type": "event"
    },
    {
      "inputs": [],
      "name": "_CLONE_FACTORY_",
      "outputs": [
        {
          "internalType": "address",
          "name": "",
          "type": "address"
        }
      ],
      "stateMutability": "view",
      "type": "function",
      "constant": true
    },
    {
      "inputs": [],
      "name": "_ERC20_TEMPLATE_",
      "outputs": [
        {
          "internalType": "address",
          "name": "",
          "type": "address"
        }
      ],
      "stateMutability": "view",
      "type": "function",
      "constant": true
    },
    {
      "inputs": [],
      "name": "_MINTABLE_ERC20_TEMPLATE_",
      "outputs": [
        {
          "internalType": "address",
          "name": "",
          "type": "address"
        }
      ],
      "stateMutability": "view",
      "type": "function",
      "constant": true
    },
    {
      "inputs": [
        {
          "internalType": "address",
          "name": "",
          "type": "address"
        },
        {
          "internalType": "uint256",
          "name": "",
          "type": "uint256"
        }
      ],
      "name": "_USER_STD_REGISTRY_",
      "outputs": [
        {
          "internalType": "address",
          "name": "",
          "type": "address"
        }
      ],
      "stateMutability": "view",
      "type": "function",
      "constant": true
    },
    {
      "inputs": [
        {
          "internalType": "uint256",
          "name": "totalSupply",
          "type": "uint256"
        },
        {
          "internalType": "string",
          "name": "name",
          "type": "string"
        },
        {
          "internalType": "string",
          "name": "symbol",
          "type": "string"
        },
        {
          "internalType": "uint256",
          "name": "decimals",
          "type": "uint256"
        }
      ],
      "name": "createStdERC20",
      "outputs": [
        {
          "internalType": "address",
          "name": "newERC20",
          "type": "address"
        }
      ],
      "stateMutability": "nonpayable",
      "type": "function"
    },
    {
      "inputs": [
        {
          "internalType": "uint256",
          "name": "initSupply",
          "type": "uint256"
        },
        {
          "internalType": "string",
          "name": "name",
          "type": "string"
        },
        {
          "internalType": "string",
          "name": "symbol",
          "type": "string"
        },
        {
          "internalType": "uint256",
          "name": "decimals",
          "type": "uint256"
        }
      ],
      "name": "createMintableERC20",
      "outputs": [
        {
          "internalType": "address",
          "name": "newMintableERC20",
          "type": "address"
        }
      ],
      "stateMutability": "nonpayable",
      "type": "function"
    },
    {
      "inputs": [
        {
          "internalType": "address",
          "name": "user",
          "type": "address"
        }
      ],
      "name": "getTokenByUser",
      "outputs": [
        {
          "internalType": "address[]",
          "name": "tokens",
          "type": "address[]"
        }
      ],
      "stateMutability": "view",
      "type": "function",
      "constant": true
    }
  ],
  "bytecode": "0x60e06040523480156200001157600080fd5b5060405162000ee738038062000ee7833981810160405281019062000037919062000146565b8273ffffffffffffffffffffffffffffffffffffffff1660808173ffffffffffffffffffffffffffffffffffffffff16815250508173ffffffffffffffffffffffffffffffffffffffff1660a08173ffffffffffffffffffffffffffffffffffffffff16815250508073ffffffffffffffffffffffffffffffffffffffff1660c08173ffffffffffffffffffffffffffffffffffffffff1681525050505050620001a2565b600080fd5b600073ffffffffffffffffffffffffffffffffffffffff82169050919050565b60006200010e82620000e1565b9050919050565b620001208162000101565b81146200012c57600080fd5b50565b600081519050620001408162000115565b92915050565b600080600060608486031215620001625762000161620000dc565b5b600062000172868287016200012f565b935050602062000185868287016200012f565b925050604062000198868287016200012f565b9150509250925092565b60805160a05160c051610cf9620001ee6000396000818161020901526104b901526000818161026b015261062a01526000818161022f0152818161047d015261071a0152610cf96000f3fe608060405234801561001057600080fd5b506004361061009a576000357c0100000000000000000000000000000000000000000000000000000000900480637d0df67a116100785780637d0df67a1461011d578063973817601461014d578063d029d5211461016b578063eb774d051461019b5761009a565b806335c70da01461009f5780634bd1efca146100cf5780634de3847e146100ed575b600080fd5b6100b960048036038101906100b491906107e4565b6101b9565b6040516100c69190610833565b60405180910390f35b6100d7610207565b6040516100e49190610833565b60405180910390f35b61010760048036038101906101029190610994565b61022b565b6040516101149190610833565b60405180910390f35b61013760048036038101906101329190610994565b610479565b6040516101449190610833565b60405180910390f35b610155610628565b6040516101629190610833565b60405180910390f35b61018560048036038101906101809190610a33565b61064c565b6040516101929190610b1e565b60405180910390f35b6101a3610718565b6040516101b09190610833565b60405180910390f35b600060205281600052604060002081815481106101d557600080fd5b906000526020600020016000915091509054906101000a900473ffffffffffffffffffffffffffffffffffffffff1681565b7f000000000000000000000000000000000000000000000000000000000000000081565b60007f000000000000000000000000000000000000000000000000000000000000000073ffffffffffffffffffffffffffffffffffffffff16638124b78e7f00000000000000000000000000000000000000000000000000000000000000006040518263ffffffff167c01000000000000000000000000000000000000000000000000000000000281526004016102c29190610833565b6020604051808303816000875af11580156102e1573d6000803e3d6000fd5b505050506040513d601f19601f820116820180604052508101906103059190610b55565b90508073ffffffffffffffffffffffffffffffffffffffff16637e24f90433878787876040518663ffffffff167c0100000000000000000000000000000000000000000000000000000000028152600401610364959493929190610c10565b600060405180830381600087803b15801561037e57600080fd5b505af1158015610392573d6000803e3d6000fd5b505050506000803373ffffffffffffffffffffffffffffffffffffffff1673ffffffffffffffffffffffffffffffffffffffff168152602001908152602001600020819080600181540180825580915050600190039060005260206000200160009091909190916101000a81548173ffffffffffffffffffffffffffffffffffffffff021916908373ffffffffffffffffffffffffffffffffffffffff1602179055507faecaa4e876141d4736ce29c208d03e487e49cc05cae31663c3edaf1fdfbf5ef08133600060405161046993929190610c8c565b60405180910390a1949350505050565b60007f000000000000000000000000000000000000000000000000000000000000000073ffffffffffffffffffffffffffffffffffffffff16638124b78e7f00000000000000000000000000000000000000000000000000000000000000006040518263ffffffff167c01000000000000000000000000000000000000000000000000000000000281526004016105109190610833565b6020604051808303816000875af115801561052f573d6000803e3d6000fd5b505050506040513d601f19601f820116820180604052508101906105539190610b55565b90508073ffffffffffffffffffffffffffffffffffffffff16637e24f90433878787876040518663ffffffff167c01000000000000000000000000000000000000000000000000000000000281526004016105b2959493929190610c10565b600060405180830381600087803b1580156105cc57600080fd5b505af11580156105e0573d6000803e3d6000fd5b505050507faecaa4e876141d4736ce29c208d03e487e49cc05cae31663c3edaf1fdfbf5ef08133600160405161061893929190610c8c565b60405180910390a1949350505050565b7f000000000000000000000000000000000000000000000000000000000000000081565b60606000808373ffffffffffffffffffffffffffffffffffffffff1673ffffffffffffffffffffffffffffffffffffffff16815260200190815260200160002080548060200260200160405190810160405280929190818152602001828054801561070c57602002820191906000526020600020905b8160009054906101000a900473ffffffffffffffffffffffffffffffffffffffff1673ffffffffffffffffffffffffffffffffffffffff16815260200190600101908083116106c2575b50505050509050919050565b7f000000000000000000000000000000000000000000000000000000000000000081565b6000604051905090565b600080fd5b600080fd5b600073ffffffffffffffffffffffffffffffffffffffff82169050919050565b600061077b82610750565b9050919050565b61078b81610770565b811461079657600080fd5b50565b6000813590506107a881610782565b92915050565b6000819050919050565b6107c1816107ae565b81146107cc57600080fd5b50565b6000813590506107de816107b8565b92915050565b600080604083850312156107fb576107fa610746565b5b600061080985828601610799565b925050602061081a858286016107cf565b9150509250929050565b61082d81610770565b82525050565b60006020820190506108486000830184610824565b92915050565b600080fd5b600080fd5b6000601f19601f8301169050919050565b7f4e487b7100000000000000000000000000000000000000000000000000000000600052604160045260246000fd5b6108a182610858565b810181811067ffffffffffffffff821117156108c0576108bf610869565b5b80604052505050565b60006108d361073c565b90506108df8282610898565b919050565b600067ffffffffffffffff8211156108ff576108fe610869565b5b61090882610858565b9050602081019050919050565b82818337600083830152505050565b6000610937610932846108e4565b6108c9565b90508281526020810184848401111561095357610952610853565b5b61095e848285610915565b509392505050565b600082601f83011261097b5761097a61084e565b5b813561098b848260208601610924565b91505092915050565b600080600080608085870312156109ae576109ad610746565b5b60006109bc878288016107cf565b945050602085013567ffffffffffffffff8111156109dd576109dc61074b565b5b6109e987828801610966565b935050604085013567ffffffffffffffff811115610a0a57610a0961074b565b5b610a1687828801610966565b9250506060610a27878288016107cf565b91505092959194509250565b600060208284031215610a4957610a48610746565b5b6000610a5784828501610799565b91505092915050565b600081519050919050565b600082825260208201905092915050565b6000819050602082019050919050565b610a9581610770565b82525050565b6000610aa78383610a8c565b60208301905092915050565b6000602082019050919050565b6000610acb82610a60565b610ad58185610a6b565b9350610ae083610a7c565b8060005b83811015610b11578151610af88882610a9b565b9750610b0383610ab3565b925050600181019050610ae4565b5085935050505092915050565b60006020820190508181036000830152610b388184610ac0565b905092915050565b600081519050610b4f81610782565b92915050565b600060208284031215610b6b57610b6a610746565b5b6000610b7984828501610b40565b91505092915050565b610b8b816107ae565b82525050565b600081519050919050565b600082825260208201905092915050565b60005b83811015610bcb578082015181840152602081019050610bb0565b60008484015250505050565b6000610be282610b91565b610bec8185610b9c565b9350610bfc818560208601610bad565b610c0581610858565b840191505092915050565b600060a082019050610c256000830188610824565b610c326020830187610b82565b8181036040830152610c448186610bd7565b90508181036060830152610c588185610bd7565b9050610c676080830184610b82565b9695505050505050565b60008115159050919050565b610c8681610c71565b82525050565b6000606082019050610ca16000830186610824565b610cae6020830185610824565b610cbb6040830184610c7d565b94935050505056fea26469706673582212208283f4e57767b8e734cb0eb492c17c74bee81bcbec73cd02bd94fa072f3bad3764736f6c63430008130033",
  "immutableReferences": {
    "539": [
      {
        "length": 32,
        "start": 559
      },
      {
        "length": 32,
        "start": 1149
      },
      {
        "length": 32,
        "start": 1818
      }
    ],
    "541": [
      {
        "length": 32,
        "start": 619
      },
      {
        "length": 32,
        "start": 1578
      }
    ],
    "543": [
      {
        "length": 32,
        "start": 521
      },
      {
        "length": 32,
        "start": 1209
      }
    ]
  },
  "source": "pragma solidity 0.8.19;\npragma experimental ABIEncoderV2;\n\nimport {ICloneFactory} from \"./CloneFactory.sol\";\nimport {ERC20Template} from \"./ERC20Template.sol\";\nimport {SafeMath} from \"./SafeMath.sol\";\n\ncontract InitializableOwnable {\n    address public _OWNER_;\n    address public _NEW_OWNER_;\n    bool internal _INITIALIZED_;\n\n    // ============ Events ============\n\n    event OwnershipTransferPrepared(\n        address indexed previousOwner,\n        address indexed newOwner\n    );\n\n    event OwnershipTransferred(\n        address indexed previousOwner,\n        address indexed newOwner\n    );\n\n    // ============ Modifiers ============\n\n    modifier notInitialized() {\n        require(!_INITIALIZED_, \"DODO_INITIALIZED\");\n        _;\n    }\n\n    modifier onlyOwner() {\n        require(msg.sender == _OWNER_, \"NOT_OWNER\");\n        _;\n    }\n\n    // ============ Functions ============\n\n    function initOwner(address newOwner) public notInitialized {\n        _INITIALIZED_ = true;\n        _OWNER_ = newOwner;\n    }\n\n    function transferOwnership(address newOwner) public onlyOwner {\n        emit OwnershipTransferPrepared(_OWNER_, newOwner);\n        _NEW_OWNER_ = newOwner;\n    }\n\n    function claimOwnership() public {\n        require(msg.sender == _NEW_OWNER_, \"INVALID_CLAIM\");\n        emit OwnershipTransferred(_OWNER_, _NEW_OWNER_);\n        _OWNER_ = _NEW_OWNER_;\n        _NEW_OWNER_ = address(0);\n    }\n}\n\ncontract InitializableMintableERC20 is InitializableOwnable {\n    using SafeMath for uint256;\n\n    string public name;\n    uint256 public decimals;\n    string public symbol;\n    uint256 public totalSupply;\n\n    mapping(address => uint256) balances;\n    mapping(address => mapping(address => uint256)) internal allowed;\n\n    event Transfer(address indexed from, address indexed to, uint256 amount);\n    event Approval(\n        address indexed owner,\n        address indexed spender,\n        uint256 amount\n    );\n    event Mint(address indexed user, uint256 value);\n    event Burn(address indexed user, uint256 value);\n\n    function init(\n        address _creator,\n        uint256 _initSupply,\n        string memory _name,\n        string memory _symbol,\n        uint256 _decimals\n    ) public {\n        initOwner(_creator);\n        name = _name;\n        symbol = _symbol;\n        decimals = _decimals;\n        totalSupply = _initSupply;\n        balances[_creator] = _initSupply;\n        emit Transfer(address(0), _creator, _initSupply);\n    }\n\n    function transfer(address to, uint256 amount) public returns (bool) {\n        require(to != address(0), \"TO_ADDRESS_IS_EMPTY\");\n        require(amount <= balances[msg.sender], \"BALANCE_NOT_ENOUGH\");\n\n        balances[msg.sender] = balances[msg.sender].sub(amount);\n        balances[to] = balances[to].add(amount);\n        emit Transfer(msg.sender, to, amount);\n        return true;\n    }\n\n    function balanceOf(address owner) public view returns (uint256 balance) {\n        return balances[owner];\n    }\n\n    function transferFrom(\n        address from,\n        address to,\n        uint256 amount\n    ) public returns (bool) {\n        require(to != address(0), \"TO_ADDRESS_IS_EMPTY\");\n        require(amount <= balances[from], \"BALANCE_NOT_ENOUGH\");\n        require(amount <= allowed[from][msg.sender], \"ALLOWANCE_NOT_ENOUGH\");\n\n        balances[from] = balances[from].sub(amount);\n        balances[to] = balances[to].add(amount);\n        allowed[from][msg.sender] = allowed[from][msg.sender].sub(amount);\n        emit Transfer(from, to, amount);\n        return true;\n    }\n\n    function approve(address spender, uint256 amount) public returns (bool) {\n        allowed[msg.sender][spender] = amount;\n        emit Approval(msg.sender, spender, amount);\n        return true;\n    }\n\n    function allowance(\n        address owner,\n        address spender\n    ) public view returns (uint256) {\n        return allowed[owner][spender];\n    }\n\n    function mint(address user, uint256 value) external onlyOwner {\n        balances[user] = balances[user].add(value);\n        totalSupply = totalSupply.add(value);\n        emit Mint(user, value);\n        emit Transfer(address(0), user, value);\n    }\n\n    function burn(address user, uint256 value) external onlyOwner {\n        balances[user] = balances[user].sub(value);\n        totalSupply = totalSupply.sub(value);\n        emit Burn(user, value);\n        emit Transfer(user, address(0), value);\n    }\n}\n\ncontract ERC20Factory {\n    // ============ Templates ============\n\n    address public immutable _CLONE_FACTORY_;\n    address public immutable _ERC20_TEMPLATE_;\n    address public immutable _MINTABLE_ERC20_TEMPLATE_;\n\n    // ============ Events ============\n\n    event NewERC20(address erc20, address creator, bool isMintable);\n\n    // ============ Registry ============\n    // creator -> token address list\n    mapping(address => address[]) public _USER_STD_REGISTRY_;\n\n    // ============ Functions ============\n\n    constructor(\n        address cloneFactory,\n        address erc20Template,\n        address mintableErc20Template\n    ) public {\n        _CLONE_FACTORY_ = cloneFactory;\n        _ERC20_TEMPLATE_ = erc20Template;\n        _MINTABLE_ERC20_TEMPLATE_ = mintableErc20Template;\n    }\n\n    function createStdERC20(\n        uint256 totalSupply,\n        string memory name,\n        string memory symbol,\n        uint256 decimals\n    ) external returns (address newERC20) {\n        newERC20 = ICloneFactory(_CLONE_FACTORY_).clone(_ERC20_TEMPLATE_);\n        ERC20Template(newERC20).init(\n            msg.sender,\n            totalSupply,\n            name,\n            symbol,\n            decimals\n        );\n        _USER_STD_REGISTRY_[msg.sender].push(newERC20);\n        emit NewERC20(newERC20, msg.sender, false);\n    }\n\n    function createMintableERC20(\n        uint256 initSupply,\n        string memory name,\n        string memory symbol,\n        uint256 decimals\n    ) external returns (address newMintableERC20) {\n        newMintableERC20 = ICloneFactory(_CLONE_FACTORY_).clone(\n            _MINTABLE_ERC20_TEMPLATE_\n        );\n        InitializableMintableERC20(newMintableERC20).init(\n            msg.sender,\n            initSupply,\n            name,\n            symbol,\n            decimals\n        );\n        emit NewERC20(newMintableERC20, msg.sender, true);\n    }\n\n    function getTokenByUser(\n        address user\n    ) external view returns (address[] memory tokens) {\n        return _USER_STD_REGISTRY_[user];\n    }\n}",
  "sourcePath": "/Users/songen/Desktop/123/kratos-gorm-git/kafka/erc20/contracts/ERC20Factory.sol",
  "compiler": {
    "name": "solc",
    "version": "0.8.19+commit.7dd6d404.Emscripten.clang"
  },
  "schemaVersion": "3.4.13",
  "updatedAt": "2023-05-02T14:10:50.302Z",
  "networkType": "ethereum",
  "devdoc": {
    "kind": "dev",
    "methods": {},
    "version": 1
  },
  "userdoc": {
    "kind": "user",
    "methods": {},
    "version": 1
  }
}