{
  "contractName": "InitializableOwnable",
  "abi": [
    {
      "anonymous": false,
      "inputs": [
        {
          "indexed": true,
          "internalType": "address",
          "name": "previousOwner",
          "type": "address"
        },
        {
          "indexed": true,
          "internalType": "address",
          "name": "newOwner",
          "type": "address"
        }
      ],
      "name": "OwnershipTransferPrepared",
      "type": "event"
    },
    {
      "anonymous": false,
      "inputs": [
        {
          "indexed": true,
          "internalType": "address",
          "name": "previousOwner",
          "type": "address"
        },
        {
          "indexed": true,
          "internalType": "address",
          "name": "newOwner",
          "type": "address"
        }
      ],
      "name": "OwnershipTransferred",
      "type": "event"
    },
    {
      "inputs": [],
      "name": "_NEW_OWNER_",
      "outputs": [
        {
          "internalType": "address",
          "name": "",
          "type": "address"
        }
      ],
      "stateMutability": "view",
      "type": "function"
    },
    {
      "inputs": [],
      "name": "_OWNER_",
      "outputs": [
        {
          "internalType": "address",
          "name": "",
          "type": "address"
        }
      ],
      "stateMutability": "view",
      "type": "function"
    },
    {
      "inputs": [
        {
          "internalType": "address",
          "name": "newOwner",
          "type": "address"
        }
      ],
      "name": "initOwner",
      "outputs": [],
      "stateMutability": "nonpayable",
      "type": "function"
    },
    {
      "inputs": [
        {
          "internalType": "address",
          "name": "newOwner",
          "type": "address"
        }
      ],
      "name": "transferOwnership",
      "outputs": [],
      "stateMutability": "nonpayable",
      "type": "function"
    },
    {
      "inputs": [],
      "name": "claimOwnership",
      "outputs": [],
      "stateMutability": "nonpayable",
      "type": "function"
    }
  ],
  "bytecode": "0x608060405234801561001057600080fd5b50610751806100206000396000f3fe608060405234801561001057600080fd5b5060043610610074576000357c0100000000000000000000000000000000000000000000000000000000900480630d0092971461007957806316048bc4146100955780634e71e0c8146100b35780638456db15146100bd578063f2fde38b146100db575b600080fd5b610093600480360381019061008e919061056f565b6100f7565b005b61009d6101a4565b6040516100aa91906105ab565b60405180910390f35b6100bb6101c8565b005b6100c561039a565b6040516100d291906105ab565b60405180910390f35b6100f560048036038101906100f0919061056f565b6103c0565b005b600160149054906101000a900460ff1615610147576040517f08c379a000000000000000000000000000000000000000000000000000000000815260040161013e90610623565b60405180910390fd5b60018060146101000a81548160ff021916908315150217905550806000806101000a81548173ffffffffffffffffffffffffffffffffffffffff021916908373ffffffffffffffffffffffffffffffffffffffff16021790555050565b60008054906101000a900473ffffffffffffffffffffffffffffffffffffffff1681565b600160009054906101000a900473ffffffffffffffffffffffffffffffffffffffff1673ffffffffffffffffffffffffffffffffffffffff163373ffffffffffffffffffffffffffffffffffffffff1614610258576040517f08c379a000000000000000000000000000000000000000000000000000000000815260040161024f9061068f565b60405180910390fd5b600160009054906101000a900473ffffffffffffffffffffffffffffffffffffffff1673ffffffffffffffffffffffffffffffffffffffff1660008054906101000a900473ffffffffffffffffffffffffffffffffffffffff1673ffffffffffffffffffffffffffffffffffffffff167f8be0079c531659141344cd1fd0a4f28419497f9722a3daafe3b4186f6b6457e060405160405180910390a3600160009054906101000a900473ffffffffffffffffffffffffffffffffffffffff166000806101000a81548173ffffffffffffffffffffffffffffffffffffffff021916908373ffffffffffffffffffffffffffffffffffffffff1602179055506000600160006101000a81548173ffffffffffffffffffffffffffffffffffffffff021916908373ffffffffffffffffffffffffffffffffffffffff160217905550565b600160009054906101000a900473ffffffffffffffffffffffffffffffffffffffff1681565b60008054906101000a900473ffffffffffffffffffffffffffffffffffffffff1673ffffffffffffffffffffffffffffffffffffffff163373ffffffffffffffffffffffffffffffffffffffff161461044e576040517f08c379a0000000000000000000000000000000000000000000000000000000008152600401610445906106fb565b60405180910390fd5b8073ffffffffffffffffffffffffffffffffffffffff1660008054906101000a900473ffffffffffffffffffffffffffffffffffffffff1673ffffffffffffffffffffffffffffffffffffffff167fdcf55418cee3220104fef63f979ff3c4097ad240c0c43dcb33ce837748983e6260405160405180910390a380600160006101000a81548173ffffffffffffffffffffffffffffffffffffffff021916908373ffffffffffffffffffffffffffffffffffffffff16021790555050565b600080fd5b600073ffffffffffffffffffffffffffffffffffffffff82169050919050565b600061053c82610511565b9050919050565b61054c81610531565b811461055757600080fd5b50565b60008135905061056981610543565b92915050565b6000602082840312156105855761058461050c565b5b60006105938482850161055a565b91505092915050565b6105a581610531565b82525050565b60006020820190506105c0600083018461059c565b92915050565b600082825260208201905092915050565b7f444f444f5f494e495449414c495a454400000000000000000000000000000000600082015250565b600061060d6010836105c6565b9150610618826105d7565b602082019050919050565b6000602082019050818103600083015261063c81610600565b9050919050565b7f494e56414c49445f434c41494d00000000000000000000000000000000000000600082015250565b6000610679600d836105c6565b915061068482610643565b602082019050919050565b600060208201905081810360008301526106a88161066c565b9050919050565b7f4e4f545f4f574e45520000000000000000000000000000000000000000000000600082015250565b60006106e56009836105c6565b91506106f0826106af565b602082019050919050565b60006020820190508181036000830152610714816106d8565b905091905056fea2646970667358221220069dc042acf2308df33494e5c5fe3e339cdbb6b1680632082ebc2e8ab5b1360b64736f6c63430008130033",
  "immutableReferences": {},
  "source": "pragma solidity 0.8.19;\npragma experimental ABIEncoderV2;\n\nimport {ICloneFactory} from \"./CloneFactory.sol\";\nimport {ERC20Template} from \"./ERC20Template.sol\";\nimport {SafeMath} from \"./SafeMath.sol\";\n\ncontract InitializableOwnable {\n    address public _OWNER_;\n    address public _NEW_OWNER_;\n    bool internal _INITIALIZED_;\n\n    // ============ Events ============\n\n    event OwnershipTransferPrepared(\n        address indexed previousOwner,\n        address indexed newOwner\n    );\n\n    event OwnershipTransferred(\n        address indexed previousOwner,\n        address indexed newOwner\n    );\n\n    // ============ Modifiers ============\n\n    modifier notInitialized() {\n        require(!_INITIALIZED_, \"DODO_INITIALIZED\");\n        _;\n    }\n\n    modifier onlyOwner() {\n        require(msg.sender == _OWNER_, \"NOT_OWNER\");\n        _;\n    }\n\n    // ============ Functions ============\n\n    function initOwner(address newOwner) public notInitialized {\n        _INITIALIZED_ = true;\n        _OWNER_ = newOwner;\n    }\n\n    function transferOwnership(address newOwner) public onlyOwner {\n        emit OwnershipTransferPrepared(_OWNER_, newOwner);\n        _NEW_OWNER_ = newOwner;\n    }\n\n    function claimOwnership() public {\n        require(msg.sender == _NEW_OWNER_, \"INVALID_CLAIM\");\n        emit OwnershipTransferred(_OWNER_, _NEW_OWNER_);\n        _OWNER_ = _NEW_OWNER_;\n        _NEW_OWNER_ = address(0);\n    }\n}\n\ncontract InitializableMintableERC20 is InitializableOwnable {\n    using SafeMath for uint256;\n\n    string public name;\n    uint256 public decimals;\n    string public symbol;\n    uint256 public totalSupply;\n\n    mapping(address => uint256) balances;\n    mapping(address => mapping(address => uint256)) internal allowed;\n\n    event Transfer(address indexed from, address indexed to, uint256 amount);\n    event Approval(\n        address indexed owner,\n        address indexed spender,\n        uint256 amount\n    );\n    event Mint(address indexed user, uint256 value);\n    event Burn(address indexed user, uint256 value);\n\n    function init(\n        address _creator,\n        uint256 _initSupply,\n        string memory _name,\n        string memory _symbol,\n        uint256 _decimals\n    ) public {\n        initOwner(_creator);\n        name = _name;\n        symbol = _symbol;\n        decimals = _decimals;\n        totalSupply = _initSupply;\n        balances[_creator] = _initSupply;\n        emit Transfer(address(0), _creator, _initSupply);\n    }\n\n    function transfer(address to, uint256 amount) public returns (bool) {\n        require(to != address(0), \"TO_ADDRESS_IS_EMPTY\");\n        require(amount <= balances[msg.sender], \"BALANCE_NOT_ENOUGH\");\n\n        balances[msg.sender] = balances[msg.sender].sub(amount);\n        balances[to] = balances[to].add(amount);\n        emit Transfer(msg.sender, to, amount);\n        return true;\n    }\n\n    function balanceOf(address owner) public view returns (uint256 balance) {\n        return balances[owner];\n    }\n\n    function transferFrom(\n        address from,\n        address to,\n        uint256 amount\n    ) public returns (bool) {\n        require(to != address(0), \"TO_ADDRESS_IS_EMPTY\");\n        require(amount <= balances[from], \"BALANCE_NOT_ENOUGH\");\n        require(amount <= allowed[from][msg.sender], \"ALLOWANCE_NOT_ENOUGH\");\n\n        balances[from] = balances[from].sub(amount);\n        balances[to] = balances[to].add(amount);\n        allowed[from][msg.sender] = allowed[from][msg.sender].sub(amount);\n        emit Transfer(from, to, amount);\n        return true;\n    }\n\n    function approve(address spender, uint256 amount) public returns (bool) {\n        allowed[msg.sender][spender] = amount;\n        emit Approval(msg.sender, spender, amount);\n        return true;\n    }\n\n    function allowance(\n        address owner,\n        address spender\n    ) public view returns (uint256) {\n        return allowed[owner][spender];\n    }\n\n    function mint(address user, uint256 value) external onlyOwner {\n        balances[user] = balances[user].add(value);\n        totalSupply = totalSupply.add(value);\n        emit Mint(user, value);\n        emit Transfer(address(0), user, value);\n    }\n\n    function burn(address user, uint256 value) external onlyOwner {\n        balances[user] = balances[user].sub(value);\n        totalSupply = totalSupply.sub(value);\n        emit Burn(user, value);\n        emit Transfer(user, address(0), value);\n    }\n}\n\ncontract ERC20Factory {\n    // ============ Templates ============\n\n    address public immutable _CLONE_FACTORY_;\n    address public immutable _ERC20_TEMPLATE_;\n    address public immutable _MINTABLE_ERC20_TEMPLATE_;\n\n    // ============ Events ============\n\n    event NewERC20(address erc20, address creator, bool isMintable);\n\n    // ============ Registry ============\n    // creator -> token address list\n    mapping(address => address[]) public _USER_STD_REGISTRY_;\n\n    // ============ Functions ============\n\n    constructor(\n        address cloneFactory,\n        address erc20Template,\n        address mintableErc20Template\n    ) public {\n        _CLONE_FACTORY_ = cloneFactory;\n        _ERC20_TEMPLATE_ = erc20Template;\n        _MINTABLE_ERC20_TEMPLATE_ = mintableErc20Template;\n    }\n\n    function createStdERC20(\n        uint256 totalSupply,\n        string memory name,\n        string memory symbol,\n        uint256 decimals\n    ) external returns (address newERC20) {\n        newERC20 = ICloneFactory(_CLONE_FACTORY_).clone(_ERC20_TEMPLATE_);\n        ERC20Template(newERC20).init(\n            msg.sender,\n            totalSupply,\n            name,\n            symbol,\n            decimals\n        );\n        _USER_STD_REGISTRY_[msg.sender].push(newERC20);\n        emit NewERC20(newERC20, msg.sender, false);\n    }\n\n    function createMintableERC20(\n        uint256 initSupply,\n        string memory name,\n        string memory symbol,\n        uint256 decimals\n    ) external returns (address newMintableERC20) {\n        newMintableERC20 = ICloneFactory(_CLONE_FACTORY_).clone(\n            _MINTABLE_ERC20_TEMPLATE_\n        );\n        InitializableMintableERC20(newMintableERC20).init(\n            msg.sender,\n            initSupply,\n            name,\n            symbol,\n            decimals\n        );\n        emit NewERC20(newMintableERC20, msg.sender, true);\n    }\n\n    function getTokenByUser(\n        address user\n    ) external view returns (address[] memory tokens) {\n        return _USER_STD_REGISTRY_[user];\n    }\n}",
  "sourcePath": "/Users/songen/Desktop/123/kratos-gorm-git/kafka/erc20/contracts/ERC20Factory.sol",
  "compiler": {
    "name": "solc",
    "version": "0.8.19+commit.7dd6d404.Emscripten.clang"
  },
  "schemaVersion": "3.4.13",
  "updatedAt": "2023-05-02T13:23:51.871Z",
  "devdoc": {
    "kind": "dev",
    "methods": {},
    "version": 1
  },
  "userdoc": {
    "kind": "user",
    "methods": {},
    "version": 1
  }
}