{
  "contractName": "InitializableMintableERC20",
  "abi": [
    {
      "anonymous": false,
      "inputs": [
        {
          "indexed": true,
          "internalType": "address",
          "name": "owner",
          "type": "address"
        },
        {
          "indexed": true,
          "internalType": "address",
          "name": "spender",
          "type": "address"
        },
        {
          "indexed": false,
          "internalType": "uint256",
          "name": "amount",
          "type": "uint256"
        }
      ],
      "name": "Approval",
      "type": "event"
    },
    {
      "anonymous": false,
      "inputs": [
        {
          "indexed": true,
          "internalType": "address",
          "name": "user",
          "type": "address"
        },
        {
          "indexed": false,
          "internalType": "uint256",
          "name": "value",
          "type": "uint256"
        }
      ],
      "name": "Burn",
      "type": "event"
    },
    {
      "anonymous": false,
      "inputs": [
        {
          "indexed": true,
          "internalType": "address",
          "name": "user",
          "type": "address"
        },
        {
          "indexed": false,
          "internalType": "uint256",
          "name": "value",
          "type": "uint256"
        }
      ],
      "name": "Mint",
      "type": "event"
    },
    {
      "anonymous": false,
      "inputs": [
        {
          "indexed": true,
          "internalType": "address",
          "name": "previousOwner",
          "type": "address"
        },
        {
          "indexed": true,
          "internalType": "address",
          "name": "newOwner",
          "type": "address"
        }
      ],
      "name": "OwnershipTransferPrepared",
      "type": "event"
    },
    {
      "anonymous": false,
      "inputs": [
        {
          "indexed": true,
          "internalType": "address",
          "name": "previousOwner",
          "type": "address"
        },
        {
          "indexed": true,
          "internalType": "address",
          "name": "newOwner",
          "type": "address"
        }
      ],
      "name": "OwnershipTransferred",
      "type": "event"
    },
    {
      "anonymous": false,
      "inputs": [
        {
          "indexed": true,
          "internalType": "address",
          "name": "from",
          "type": "address"
        },
        {
          "indexed": true,
          "internalType": "address",
          "name": "to",
          "type": "address"
        },
        {
          "indexed": false,
          "internalType": "uint256",
          "name": "amount",
          "type": "uint256"
        }
      ],
      "name": "Transfer",
      "type": "event"
    },
    {
      "inputs": [],
      "name": "_NEW_OWNER_",
      "outputs": [
        {
          "internalType": "address",
          "name": "",
          "type": "address"
        }
      ],
      "stateMutability": "view",
      "type": "function",
      "constant": true
    },
    {
      "inputs": [],
      "name": "_OWNER_",
      "outputs": [
        {
          "internalType": "address",
          "name": "",
          "type": "address"
        }
      ],
      "stateMutability": "view",
      "type": "function",
      "constant": true
    },
    {
      "inputs": [],
      "name": "claimOwnership",
      "outputs": [],
      "stateMutability": "nonpayable",
      "type": "function"
    },
    {
      "inputs": [],
      "name": "decimals",
      "outputs": [
        {
          "internalType": "uint256",
          "name": "",
          "type": "uint256"
        }
      ],
      "stateMutability": "view",
      "type": "function",
      "constant": true
    },
    {
      "inputs": [
        {
          "internalType": "address",
          "name": "newOwner",
          "type": "address"
        }
      ],
      "name": "initOwner",
      "outputs": [],
      "stateMutability": "nonpayable",
      "type": "function"
    },
    {
      "inputs": [],
      "name": "name",
      "outputs": [
        {
          "internalType": "string",
          "name": "",
          "type": "string"
        }
      ],
      "stateMutability": "view",
      "type": "function",
      "constant": true
    },
    {
      "inputs": [],
      "name": "symbol",
      "outputs": [
        {
          "internalType": "string",
          "name": "",
          "type": "string"
        }
      ],
      "stateMutability": "view",
      "type": "function",
      "constant": true
    },
    {
      "inputs": [],
      "name": "totalSupply",
      "outputs": [
        {
          "internalType": "uint256",
          "name": "",
          "type": "uint256"
        }
      ],
      "stateMutability": "view",
      "type": "function",
      "constant": true
    },
    {
      "inputs": [
        {
          "internalType": "address",
          "name": "newOwner",
          "type": "address"
        }
      ],
      "name": "transferOwnership",
      "outputs": [],
      "stateMutability": "nonpayable",
      "type": "function"
    },
    {
      "inputs": [
        {
          "internalType": "address",
          "name": "_creator",
          "type": "address"
        },
        {
          "internalType": "uint256",
          "name": "_initSupply",
          "type": "uint256"
        },
        {
          "internalType": "string",
          "name": "_name",
          "type": "string"
        },
        {
          "internalType": "string",
          "name": "_symbol",
          "type": "string"
        },
        {
          "internalType": "uint256",
          "name": "_decimals",
          "type": "uint256"
        }
      ],
      "name": "init",
      "outputs": [],
      "stateMutability": "nonpayable",
      "type": "function"
    },
    {
      "inputs": [
        {
          "internalType": "address",
          "name": "to",
          "type": "address"
        },
        {
          "internalType": "uint256",
          "name": "amount",
          "type": "uint256"
        }
      ],
      "name": "transfer",
      "outputs": [
        {
          "internalType": "bool",
          "name": "",
          "type": "bool"
        }
      ],
      "stateMutability": "nonpayable",
      "type": "function"
    },
    {
      "inputs": [
        {
          "internalType": "address",
          "name": "owner",
          "type": "address"
        }
      ],
      "name": "balanceOf",
      "outputs": [
        {
          "internalType": "uint256",
          "name": "balance",
          "type": "uint256"
        }
      ],
      "stateMutability": "view",
      "type": "function",
      "constant": true
    },
    {
      "inputs": [
        {
          "internalType": "address",
          "name": "from",
          "type": "address"
        },
        {
          "internalType": "address",
          "name": "to",
          "type": "address"
        },
        {
          "internalType": "uint256",
          "name": "amount",
          "type": "uint256"
        }
      ],
      "name": "transferFrom",
      "outputs": [
        {
          "internalType": "bool",
          "name": "",
          "type": "bool"
        }
      ],
      "stateMutability": "nonpayable",
      "type": "function"
    },
    {
      "inputs": [
        {
          "internalType": "address",
          "name": "spender",
          "type": "address"
        },
        {
          "internalType": "uint256",
          "name": "amount",
          "type": "uint256"
        }
      ],
      "name": "approve",
      "outputs": [
        {
          "internalType": "bool",
          "name": "",
          "type": "bool"
        }
      ],
      "stateMutability": "nonpayable",
      "type": "function"
    },
    {
      "inputs": [
        {
          "internalType": "address",
          "name": "owner",
          "type": "address"
        },
        {
          "internalType": "address",
          "name": "spender",
          "type": "address"
        }
      ],
      "name": "allowance",
      "outputs": [
        {
          "internalType": "uint256",
          "name": "",
          "type": "uint256"
        }
      ],
      "stateMutability": "view",
      "type": "function",
      "constant": true
    },
    {
      "inputs": [
        {
          "internalType": "address",
          "name": "user",
          "type": "address"
        },
        {
          "internalType": "uint256",
          "name": "value",
          "type": "uint256"
        }
      ],
      "name": "mint",
      "outputs": [],
      "stateMutability": "nonpayable",
      "type": "function"
    },
    {
      "inputs": [
        {
          "internalType": "address",
          "name": "user",
          "type": "address"
        },
        {
          "internalType": "uint256",
          "name": "value",
          "type": "uint256"
        }
      ],
      "name": "burn",
      "outputs": [],
      "stateMutability": "nonpayable",
      "type": "function"
    }
  ],
  "bytecode": "0x608060405234801561001057600080fd5b506122b3806100206000396000f3fe608060405234801561001057600080fd5b5060043610610128576000357c0100000000000000000000000000000000000000000000000000000000900480634e71e0c8116100bf57806395d89b411161008e57806395d89b41146102b15780639dc29fac146102cf578063a9059cbb146102eb578063dd62ed3e1461031b578063f2fde38b1461034b57610128565b80634e71e0c81461023d57806370a08231146102475780637e24f904146102775780638456db151461029357610128565b806318160ddd116100fb57806318160ddd146101b557806323b872dd146101d3578063313ce5671461020357806340c10f191461022157610128565b806306fdde031461012d578063095ea7b31461014b5780630d0092971461017b57806316048bc414610197575b600080fd5b610135610367565b6040516101429190611766565b60405180910390f35b61016560048036038101906101609190611830565b6103f5565b604051610172919061188b565b60405180910390f35b610195600480360381019061019091906118a6565b6104e7565b005b61019f610594565b6040516101ac91906118e2565b60405180910390f35b6101bd6105b8565b6040516101ca919061190c565b60405180910390f35b6101ed60048036038101906101e89190611927565b6105be565b6040516101fa919061188b565b60405180910390f35b61020b610a18565b604051610218919061190c565b60405180910390f35b61023b60048036038101906102369190611830565b610a1e565b005b610245610c14565b005b610261600480360381019061025c91906118a6565b610de6565b60405161026e919061190c565b60405180910390f35b610291600480360381019061028c9190611aaf565b610e2f565b005b61029b610f17565b6040516102a891906118e2565b60405180910390f35b6102b9610f3d565b6040516102c69190611766565b60405180910390f35b6102e960048036038101906102e49190611830565b610fcb565b005b61030560048036038101906103009190611830565b6111c1565b604051610312919061188b565b60405180910390f35b61033560048036038101906103309190611b62565b61144c565b604051610342919061190c565b60405180910390f35b610365600480360381019061036091906118a6565b6114d3565b005b6002805461037490611bd1565b80601f01602080910402602001604051908101604052809291908181526020018280546103a090611bd1565b80156103ed5780601f106103c2576101008083540402835291602001916103ed565b820191906000526020600020905b8154815290600101906020018083116103d057829003601f168201915b505050505081565b600081600760003373ffffffffffffffffffffffffffffffffffffffff1673ffffffffffffffffffffffffffffffffffffffff16815260200190815260200160002060008573ffffffffffffffffffffffffffffffffffffffff1673ffffffffffffffffffffffffffffffffffffffff168152602001908152602001600020819055508273ffffffffffffffffffffffffffffffffffffffff163373ffffffffffffffffffffffffffffffffffffffff167f8c5be1e5ebec7d5bd14f71427d1e84f3dd0314c0f7b2291e5b200ac8c7c3b925846040516104d5919061190c565b60405180910390a36001905092915050565b600160149054906101000a900460ff1615610537576040517f08c379a000000000000000000000000000000000000000000000000000000000815260040161052e90611c4e565b60405180910390fd5b60018060146101000a81548160ff021916908315150217905550806000806101000a81548173ffffffffffffffffffffffffffffffffffffffff021916908373ffffffffffffffffffffffffffffffffffffffff16021790555050565b60008054906101000a900473ffffffffffffffffffffffffffffffffffffffff1681565b60055481565b60008073ffffffffffffffffffffffffffffffffffffffff168373ffffffffffffffffffffffffffffffffffffffff160361062e576040517f08c379a000000000000000000000000000000000000000000000000000000000815260040161062590611cba565b60405180910390fd5b600660008573ffffffffffffffffffffffffffffffffffffffff1673ffffffffffffffffffffffffffffffffffffffff168152602001908152602001600020548211156106b0576040517f08c379a00000000000000000000000000000000000000000000000000000000081526004016106a790611d26565b60405180910390fd5b600760008573ffffffffffffffffffffffffffffffffffffffff1673ffffffffffffffffffffffffffffffffffffffff16815260200190815260200160002060003373ffffffffffffffffffffffffffffffffffffffff1673ffffffffffffffffffffffffffffffffffffffff1681526020019081526020016000205482111561076f576040517f08c379a000000000000000000000000000000000000000000000000000000000815260040161076690611d92565b60405180910390fd5b6107c182600660008773ffffffffffffffffffffffffffffffffffffffff1673ffffffffffffffffffffffffffffffffffffffff1681526020019081526020016000205461161f90919063ffffffff16565b600660008673ffffffffffffffffffffffffffffffffffffffff1673ffffffffffffffffffffffffffffffffffffffff1681526020019081526020016000208190555061085682600660008673ffffffffffffffffffffffffffffffffffffffff1673ffffffffffffffffffffffffffffffffffffffff1681526020019081526020016000205461167890919063ffffffff16565b600660008573ffffffffffffffffffffffffffffffffffffffff1673ffffffffffffffffffffffffffffffffffffffff1681526020019081526020016000208190555061092882600760008773ffffffffffffffffffffffffffffffffffffffff1673ffffffffffffffffffffffffffffffffffffffff16815260200190815260200160002060003373ffffffffffffffffffffffffffffffffffffffff1673ffffffffffffffffffffffffffffffffffffffff1681526020019081526020016000205461161f90919063ffffffff16565b600760008673ffffffffffffffffffffffffffffffffffffffff1673ffffffffffffffffffffffffffffffffffffffff16815260200190815260200160002060003373ffffffffffffffffffffffffffffffffffffffff1673ffffffffffffffffffffffffffffffffffffffff168152602001908152602001600020819055508273ffffffffffffffffffffffffffffffffffffffff168473ffffffffffffffffffffffffffffffffffffffff167fddf252ad1be2c89b69c2b068fc378daa952ba7f163c4a11628f55a4df523b3ef84604051610a05919061190c565b60405180910390a3600190509392505050565b60035481565b60008054906101000a900473ffffffffffffffffffffffffffffffffffffffff1673ffffffffffffffffffffffffffffffffffffffff163373ffffffffffffffffffffffffffffffffffffffff1614610aac576040517f08c379a0000000000000000000000000000000000000000000000000000000008152600401610aa390611dfe565b60405180910390fd5b610afe81600660008573ffffffffffffffffffffffffffffffffffffffff1673ffffffffffffffffffffffffffffffffffffffff1681526020019081526020016000205461167890919063ffffffff16565b600660008473ffffffffffffffffffffffffffffffffffffffff1673ffffffffffffffffffffffffffffffffffffffff16815260200190815260200160002081905550610b568160055461167890919063ffffffff16565b6005819055508173ffffffffffffffffffffffffffffffffffffffff167f0f6798a560793a54c3bcfe86a93cde1e73087d944c0ea20544137d412139688582604051610ba2919061190c565b60405180910390a28173ffffffffffffffffffffffffffffffffffffffff16600073ffffffffffffffffffffffffffffffffffffffff167fddf252ad1be2c89b69c2b068fc378daa952ba7f163c4a11628f55a4df523b3ef83604051610c08919061190c565b60405180910390a35050565b600160009054906101000a900473ffffffffffffffffffffffffffffffffffffffff1673ffffffffffffffffffffffffffffffffffffffff163373ffffffffffffffffffffffffffffffffffffffff1614610ca4576040517f08c379a0000000000000000000000000000000000000000000000000000000008152600401610c9b90611e6a565b60405180910390fd5b600160009054906101000a900473ffffffffffffffffffffffffffffffffffffffff1673ffffffffffffffffffffffffffffffffffffffff1660008054906101000a900473ffffffffffffffffffffffffffffffffffffffff1673ffffffffffffffffffffffffffffffffffffffff167f8be0079c531659141344cd1fd0a4f28419497f9722a3daafe3b4186f6b6457e060405160405180910390a3600160009054906101000a900473ffffffffffffffffffffffffffffffffffffffff166000806101000a81548173ffffffffffffffffffffffffffffffffffffffff021916908373ffffffffffffffffffffffffffffffffffffffff1602179055506000600160006101000a81548173ffffffffffffffffffffffffffffffffffffffff021916908373ffffffffffffffffffffffffffffffffffffffff160217905550565b6000600660008373ffffffffffffffffffffffffffffffffffffffff1673ffffffffffffffffffffffffffffffffffffffff168152602001908152602001600020549050919050565b610e38856104e7565b8260029081610e47919061203c565b508160049081610e57919061203c565b50806003819055508360058190555083600660008773ffffffffffffffffffffffffffffffffffffffff1673ffffffffffffffffffffffffffffffffffffffff168152602001908152602001600020819055508473ffffffffffffffffffffffffffffffffffffffff16600073ffffffffffffffffffffffffffffffffffffffff167fddf252ad1be2c89b69c2b068fc378daa952ba7f163c4a11628f55a4df523b3ef86604051610f08919061190c565b60405180910390a35050505050565b600160009054906101000a900473ffffffffffffffffffffffffffffffffffffffff1681565b60048054610f4a90611bd1565b80601f0160208091040260200160405190810160405280929190818152602001828054610f7690611bd1565b8015610fc35780601f10610f9857610100808354040283529160200191610fc3565b820191906000526020600020905b815481529060010190602001808311610fa657829003601f168201915b505050505081565b60008054906101000a900473ffffffffffffffffffffffffffffffffffffffff1673ffffffffffffffffffffffffffffffffffffffff163373ffffffffffffffffffffffffffffffffffffffff1614611059576040517f08c379a000000000000000000000000000000000000000000000000000000000815260040161105090611dfe565b60405180910390fd5b6110ab81600660008573ffffffffffffffffffffffffffffffffffffffff1673ffffffffffffffffffffffffffffffffffffffff1681526020019081526020016000205461161f90919063ffffffff16565b600660008473ffffffffffffffffffffffffffffffffffffffff1673ffffffffffffffffffffffffffffffffffffffff168152602001908152602001600020819055506111038160055461161f90919063ffffffff16565b6005819055508173ffffffffffffffffffffffffffffffffffffffff167fcc16f5dbb4873280815c1ee09dbd06736cffcc184412cf7a71a0fdb75d397ca58260405161114f919061190c565b60405180910390a2600073ffffffffffffffffffffffffffffffffffffffff168273ffffffffffffffffffffffffffffffffffffffff167fddf252ad1be2c89b69c2b068fc378daa952ba7f163c4a11628f55a4df523b3ef836040516111b5919061190c565b60405180910390a35050565b60008073ffffffffffffffffffffffffffffffffffffffff168373ffffffffffffffffffffffffffffffffffffffff1603611231576040517f08c379a000000000000000000000000000000000000000000000000000000000815260040161122890611cba565b60405180910390fd5b600660003373ffffffffffffffffffffffffffffffffffffffff1673ffffffffffffffffffffffffffffffffffffffff168152602001908152602001600020548211156112b3576040517f08c379a00000000000000000000000000000000000000000000000000000000081526004016112aa90611d26565b60405180910390fd5b61130582600660003373ffffffffffffffffffffffffffffffffffffffff1673ffffffffffffffffffffffffffffffffffffffff1681526020019081526020016000205461161f90919063ffffffff16565b600660003373ffffffffffffffffffffffffffffffffffffffff1673ffffffffffffffffffffffffffffffffffffffff1681526020019081526020016000208190555061139a82600660008673ffffffffffffffffffffffffffffffffffffffff1673ffffffffffffffffffffffffffffffffffffffff1681526020019081526020016000205461167890919063ffffffff16565b600660008573ffffffffffffffffffffffffffffffffffffffff1673ffffffffffffffffffffffffffffffffffffffff168152602001908152602001600020819055508273ffffffffffffffffffffffffffffffffffffffff163373ffffffffffffffffffffffffffffffffffffffff167fddf252ad1be2c89b69c2b068fc378daa952ba7f163c4a11628f55a4df523b3ef8460405161143a919061190c565b60405180910390a36001905092915050565b6000600760008473ffffffffffffffffffffffffffffffffffffffff1673ffffffffffffffffffffffffffffffffffffffff16815260200190815260200160002060008373ffffffffffffffffffffffffffffffffffffffff1673ffffffffffffffffffffffffffffffffffffffff16815260200190815260200160002054905092915050565b60008054906101000a900473ffffffffffffffffffffffffffffffffffffffff1673ffffffffffffffffffffffffffffffffffffffff163373ffffffffffffffffffffffffffffffffffffffff1614611561576040517f08c379a000000000000000000000000000000000000000000000000000000000815260040161155890611dfe565b60405180910390fd5b8073ffffffffffffffffffffffffffffffffffffffff1660008054906101000a900473ffffffffffffffffffffffffffffffffffffffff1673ffffffffffffffffffffffffffffffffffffffff167fdcf55418cee3220104fef63f979ff3c4097ad240c0c43dcb33ce837748983e6260405160405180910390a380600160006101000a81548173ffffffffffffffffffffffffffffffffffffffff021916908373ffffffffffffffffffffffffffffffffffffffff16021790555050565b600082821115611664576040517f08c379a000000000000000000000000000000000000000000000000000000000815260040161165b9061215a565b60405180910390fd5b818361167091906121a9565b905092915050565b600080828461168791906121dd565b9050838110156116cc576040517f08c379a00000000000000000000000000000000000000000000000000000000081526004016116c39061225d565b60405180910390fd5b8091505092915050565b600081519050919050565b600082825260208201905092915050565b60005b838110156117105780820151818401526020810190506116f5565b60008484015250505050565b6000601f19601f8301169050919050565b6000611738826116d6565b61174281856116e1565b93506117528185602086016116f2565b61175b8161171c565b840191505092915050565b60006020820190508181036000830152611780818461172d565b905092915050565b6000604051905090565b600080fd5b600080fd5b600073ffffffffffffffffffffffffffffffffffffffff82169050919050565b60006117c78261179c565b9050919050565b6117d7816117bc565b81146117e257600080fd5b50565b6000813590506117f4816117ce565b92915050565b6000819050919050565b61180d816117fa565b811461181857600080fd5b50565b60008135905061182a81611804565b92915050565b6000806040838503121561184757611846611792565b5b6000611855858286016117e5565b92505060206118668582860161181b565b9150509250929050565b60008115159050919050565b61188581611870565b82525050565b60006020820190506118a0600083018461187c565b92915050565b6000602082840312156118bc576118bb611792565b5b60006118ca848285016117e5565b91505092915050565b6118dc816117bc565b82525050565b60006020820190506118f760008301846118d3565b92915050565b611906816117fa565b82525050565b600060208201905061192160008301846118fd565b92915050565b6000806000606084860312156119405761193f611792565b5b600061194e868287016117e5565b935050602061195f868287016117e5565b92505060406119708682870161181b565b9150509250925092565b600080fd5b600080fd5b7f4e487b7100000000000000000000000000000000000000000000000000000000600052604160045260246000fd5b6119bc8261171c565b810181811067ffffffffffffffff821117156119db576119da611984565b5b80604052505050565b60006119ee611788565b90506119fa82826119b3565b919050565b600067ffffffffffffffff821115611a1a57611a19611984565b5b611a238261171c565b9050602081019050919050565b82818337600083830152505050565b6000611a52611a4d846119ff565b6119e4565b905082815260208101848484011115611a6e57611a6d61197f565b5b611a79848285611a30565b509392505050565b600082601f830112611a9657611a9561197a565b5b8135611aa6848260208601611a3f565b91505092915050565b600080600080600060a08688031215611acb57611aca611792565b5b6000611ad9888289016117e5565b9550506020611aea8882890161181b565b945050604086013567ffffffffffffffff811115611b0b57611b0a611797565b5b611b1788828901611a81565b935050606086013567ffffffffffffffff811115611b3857611b37611797565b5b611b4488828901611a81565b9250506080611b558882890161181b565b9150509295509295909350565b60008060408385031215611b7957611b78611792565b5b6000611b87858286016117e5565b9250506020611b98858286016117e5565b9150509250929050565b7f4e487b7100000000000000000000000000000000000000000000000000000000600052602260045260246000fd5b60006002820490506001821680611be957607f821691505b602082108103611bfc57611bfb611ba2565b5b50919050565b7f444f444f5f494e495449414c495a454400000000000000000000000000000000600082015250565b6000611c386010836116e1565b9150611c4382611c02565b602082019050919050565b60006020820190508181036000830152611c6781611c2b565b9050919050565b7f544f5f414444524553535f49535f454d50545900000000000000000000000000600082015250565b6000611ca46013836116e1565b9150611caf82611c6e565b602082019050919050565b60006020820190508181036000830152611cd381611c97565b9050919050565b7f42414c414e43455f4e4f545f454e4f5547480000000000000000000000000000600082015250565b6000611d106012836116e1565b9150611d1b82611cda565b602082019050919050565b60006020820190508181036000830152611d3f81611d03565b9050919050565b7f414c4c4f57414e43455f4e4f545f454e4f554748000000000000000000000000600082015250565b6000611d7c6014836116e1565b9150611d8782611d46565b602082019050919050565b60006020820190508181036000830152611dab81611d6f565b9050919050565b7f4e4f545f4f574e45520000000000000000000000000000000000000000000000600082015250565b6000611de86009836116e1565b9150611df382611db2565b602082019050919050565b60006020820190508181036000830152611e1781611ddb565b9050919050565b7f494e56414c49445f434c41494d00000000000000000000000000000000000000600082015250565b6000611e54600d836116e1565b9150611e5f82611e1e565b602082019050919050565b60006020820190508181036000830152611e8381611e47565b9050919050565b60008190508160005260206000209050919050565b60006020601f8301049050919050565b60008160020a8302905092915050565b600060088302611eef7fffffffffffffffffffffffffffffffffffffffffffffffffffffffffffffffff82611eaf565b611ef98683611eaf565b95508019841693508086168417925050509392505050565b6000819050919050565b6000611f36611f31611f2c846117fa565b611f11565b6117fa565b9050919050565b6000819050919050565b611f5083611f1b565b611f64611f5c82611f3d565b848454611ebf565b825550505050565b600090565b611f79611f6c565b611f84818484611f47565b505050565b5b81811015611fa857611f9d600082611f71565b600181019050611f8a565b5050565b601f821115611fed57611fbe81611e8a565b611fc784611e9f565b81016020851015611fd6578190505b611fea611fe285611e9f565b830182611f89565b50505b505050565b60008160020a8304905092915050565b600061201360001984600802611ff2565b1980831691505092915050565b600061202c8383612002565b9150826002028217905092915050565b612045826116d6565b67ffffffffffffffff81111561205e5761205d611984565b5b6120688254611bd1565b612073828285611fac565b600060209050601f8311600181146120a65760008415612094578287015190505b61209e8582612020565b865550612106565b601f1984166120b486611e8a565b60005b828110156120dc578489015182556001820191506020850194506020810190506120b7565b868310156120f957848901516120f5601f891682612002565b8355505b6001600288020188555050505b505050505050565b7f5355425f4552524f520000000000000000000000000000000000000000000000600082015250565b60006121446009836116e1565b915061214f8261210e565b602082019050919050565b6000602082019050818103600083015261217381612137565b9050919050565b7f4e487b7100000000000000000000000000000000000000000000000000000000600052601160045260246000fd5b60006121b4826117fa565b91506121bf836117fa565b92508282039050818111156121d7576121d661217a565b5b92915050565b60006121e8826117fa565b91506121f3836117fa565b925082820190508082111561220b5761220a61217a565b5b92915050565b7f4144445f4552524f520000000000000000000000000000000000000000000000600082015250565b60006122476009836116e1565b915061225282612211565b602082019050919050565b600060208201905081810360008301526122768161223a565b905091905056fea26469706673582212204c3d125cc6884ddd655e84ac57d57d88681288954c9aad980454732c9b75e26164736f6c63430008130033",
  "immutableReferences": {},
  "source": "pragma solidity 0.8.19;\npragma experimental ABIEncoderV2;\n\nimport {ICloneFactory} from \"./CloneFactory.sol\";\nimport {ERC20Template} from \"./ERC20Template.sol\";\nimport {SafeMath} from \"./SafeMath.sol\";\n\ncontract InitializableOwnable {\n    address public _OWNER_;\n    address public _NEW_OWNER_;\n    bool internal _INITIALIZED_;\n\n    // ============ Events ============\n\n    event OwnershipTransferPrepared(\n        address indexed previousOwner,\n        address indexed newOwner\n    );\n\n    event OwnershipTransferred(\n        address indexed previousOwner,\n        address indexed newOwner\n    );\n\n    // ============ Modifiers ============\n\n    modifier notInitialized() {\n        require(!_INITIALIZED_, \"DODO_INITIALIZED\");\n        _;\n    }\n\n    modifier onlyOwner() {\n        require(msg.sender == _OWNER_, \"NOT_OWNER\");\n        _;\n    }\n\n    // ============ Functions ============\n\n    function initOwner(address newOwner) public notInitialized {\n        _INITIALIZED_ = true;\n        _OWNER_ = newOwner;\n    }\n\n    function transferOwnership(address newOwner) public onlyOwner {\n        emit OwnershipTransferPrepared(_OWNER_, newOwner);\n        _NEW_OWNER_ = newOwner;\n    }\n\n    function claimOwnership() public {\n        require(msg.sender == _NEW_OWNER_, \"INVALID_CLAIM\");\n        emit OwnershipTransferred(_OWNER_, _NEW_OWNER_);\n        _OWNER_ = _NEW_OWNER_;\n        _NEW_OWNER_ = address(0);\n    }\n}\n\ncontract InitializableMintableERC20 is InitializableOwnable {\n    using SafeMath for uint256;\n\n    string public name;\n    uint256 public decimals;\n    string public symbol;\n    uint256 public totalSupply;\n\n    mapping(address => uint256) balances;\n    mapping(address => mapping(address => uint256)) internal allowed;\n\n    event Transfer(address indexed from, address indexed to, uint256 amount);\n    event Approval(\n        address indexed owner,\n        address indexed spender,\n        uint256 amount\n    );\n    event Mint(address indexed user, uint256 value);\n    event Burn(address indexed user, uint256 value);\n\n    function init(\n        address _creator,\n        uint256 _initSupply,\n        string memory _name,\n        string memory _symbol,\n        uint256 _decimals\n    ) public {\n        initOwner(_creator);\n        name = _name;\n        symbol = _symbol;\n        decimals = _decimals;\n        totalSupply = _initSupply;\n        balances[_creator] = _initSupply;\n        emit Transfer(address(0), _creator, _initSupply);\n    }\n\n    function transfer(address to, uint256 amount) public returns (bool) {\n        require(to != address(0), \"TO_ADDRESS_IS_EMPTY\");\n        require(amount <= balances[msg.sender], \"BALANCE_NOT_ENOUGH\");\n\n        balances[msg.sender] = balances[msg.sender].sub(amount);\n        balances[to] = balances[to].add(amount);\n        emit Transfer(msg.sender, to, amount);\n        return true;\n    }\n\n    function balanceOf(address owner) public view returns (uint256 balance) {\n        return balances[owner];\n    }\n\n    function transferFrom(\n        address from,\n        address to,\n        uint256 amount\n    ) public returns (bool) {\n        require(to != address(0), \"TO_ADDRESS_IS_EMPTY\");\n        require(amount <= balances[from], \"BALANCE_NOT_ENOUGH\");\n        require(amount <= allowed[from][msg.sender], \"ALLOWANCE_NOT_ENOUGH\");\n\n        balances[from] = balances[from].sub(amount);\n        balances[to] = balances[to].add(amount);\n        allowed[from][msg.sender] = allowed[from][msg.sender].sub(amount);\n        emit Transfer(from, to, amount);\n        return true;\n    }\n\n    function approve(address spender, uint256 amount) public returns (bool) {\n        allowed[msg.sender][spender] = amount;\n        emit Approval(msg.sender, spender, amount);\n        return true;\n    }\n\n    function allowance(\n        address owner,\n        address spender\n    ) public view returns (uint256) {\n        return allowed[owner][spender];\n    }\n\n    function mint(address user, uint256 value) external onlyOwner {\n        balances[user] = balances[user].add(value);\n        totalSupply = totalSupply.add(value);\n        emit Mint(user, value);\n        emit Transfer(address(0), user, value);\n    }\n\n    function burn(address user, uint256 value) external onlyOwner {\n        balances[user] = balances[user].sub(value);\n        totalSupply = totalSupply.sub(value);\n        emit Burn(user, value);\n        emit Transfer(user, address(0), value);\n    }\n}\n\ncontract ERC20Factory {\n    // ============ Templates ============\n\n    address public immutable _CLONE_FACTORY_;\n    address public immutable _ERC20_TEMPLATE_;\n    address public immutable _MINTABLE_ERC20_TEMPLATE_;\n\n    // ============ Events ============\n\n    event NewERC20(address erc20, address creator, bool isMintable);\n\n    // ============ Registry ============\n    // creator -> token address list\n    mapping(address => address[]) public _USER_STD_REGISTRY_;\n\n    // ============ Functions ============\n\n    constructor(\n        address cloneFactory,\n        address erc20Template,\n        address mintableErc20Template\n    ) public {\n        _CLONE_FACTORY_ = cloneFactory;\n        _ERC20_TEMPLATE_ = erc20Template;\n        _MINTABLE_ERC20_TEMPLATE_ = mintableErc20Template;\n    }\n\n    function createStdERC20(\n        uint256 totalSupply,\n        string memory name,\n        string memory symbol,\n        uint256 decimals\n    ) external returns (address newERC20) {\n        newERC20 = ICloneFactory(_CLONE_FACTORY_).clone(_ERC20_TEMPLATE_);\n        ERC20Template(newERC20).init(\n            msg.sender,\n            totalSupply,\n            name,\n            symbol,\n            decimals\n        );\n        _USER_STD_REGISTRY_[msg.sender].push(newERC20);\n        emit NewERC20(newERC20, msg.sender, false);\n    }\n\n    function createMintableERC20(\n        uint256 initSupply,\n        string memory name,\n        string memory symbol,\n        uint256 decimals\n    ) external returns (address newMintableERC20) {\n        newMintableERC20 = ICloneFactory(_CLONE_FACTORY_).clone(\n            _MINTABLE_ERC20_TEMPLATE_\n        );\n        InitializableMintableERC20(newMintableERC20).init(\n            msg.sender,\n            initSupply,\n            name,\n            symbol,\n            decimals\n        );\n        emit NewERC20(newMintableERC20, msg.sender, true);\n    }\n\n    function getTokenByUser(\n        address user\n    ) external view returns (address[] memory tokens) {\n        return _USER_STD_REGISTRY_[user];\n    }\n}",
  "sourcePath": "/Users/songen/Desktop/123/kratos-gorm-git/kafka/erc20/contracts/ERC20Factory.sol",
  "compiler": {
    "name": "solc",
    "version": "0.8.19+commit.7dd6d404.Emscripten.clang"
  },
  "schemaVersion": "3.4.13",
  "updatedAt": "2023-05-02T14:10:50.308Z",
  "networkType": "ethereum",
  "devdoc": {
    "kind": "dev",
    "methods": {},
    "version": 1
  },
  "userdoc": {
    "kind": "user",
    "methods": {},
    "version": 1
  }
}